{
  "transactions": [
    {
      "hash": "0xb5bb97d44bfac994dacd07224a77a58917ea4873af711b89c373ee226ab8c6f1",
      "transactionType": "CREATE",
      "contractName": "AaveERC4626Vault",
      "contractAddress": "0x044fd1e5aeae91410a7865aab984ba9632679aca",
      "function": null,
      "arguments": [
        "0xA0b86991c6218b36c1d19D4a2e9Eb0cE3606eB48",
        "0x98C23E9d8f34FEFb1B7BD6a91B7FF122F4e16F5c",
        "Aave USDC Vault",
        "avUSDC",
        "0x8AaEe2071A400cC60927e46D53f751e521ef4D35"
      ],
      "transaction": {
        "from": "0x8aaee2071a400cc60927e46d53f751e521ef4d35",
        "gas": "0x27d07e",
        "value": "0x0",
        "input": "0x60c0604090808252346104fb57612589803803809161001e828561051a565b833981019060a0818303126104fb576100368161053d565b60209161004483820161053d565b818601516001600160401b0393908481116104fb578661006591850161056c565b956060840151908582116104fb5761008460809161008b93870161056c565b940161053d565b86516001600160a01b0392831695908181116104045760039081549060019a8b83811c931680156104f1575b8b8410146104dd5781908b601f9485811161048c575b50508b90848311600114610423575f92610418575b50505f1982851b1c1916908b1b1782555b86519283116104045760049687548b81811c911680156103fa575b8b8210146103e75790818388979695949311610391575b508a91841160011461031d575f92919084610312575b5050828b1b925f19911b1c19161785555b610155866105b2565b901561030a575b60a05285608052169081156102f457600580546001600160a01b03198082168517909255895195919290849082167f8be0079c531659141344cd1fd0a4f28419497f9722a3daafe3b4186f6b6457e05f80a38860065560075494169485156102e8575050600854161760085560018060b01b031916176007555f6009555f600a555f199283600b5542600c5584519280840191815f63095ea7b360e01b948581527387870bca3f3fd6335c3f4ce8392d69350b4fa4e2988960248a015260448901526044885261022b886104ff565b87519082885af1903d5f5190836102cb575b50505015610290575b8551611ebc90816106cd823960805181818161050f015281816106cd01528181610a2a01528181610d1001528181610ee00152818161118c01526112ce015260a051816111d00152f35b6102c1946102bc9287519283015260248201525f6044820152604481526102b6816104ff565b82610667565b610667565b5f80808080610246565b919250906102e2575050823b15155b5f808061023d565b146102da565b63bf5bb46d60e01b8152fd5b8751631e4fbdf760e01b81525f81860152602490fd5b50601261015c565b015191505f8061013b565b90918b9392601f198416928a5f528c5f20938d5f905b82821061036a5750508511610351575b50505050811b01855561014c565b01519060f8845f19921b161c191690555f808080610343565b9294969899509496839783929486015181550196019301918d95939189989795938e610333565b90919293949550885f528a5f208380870160051c8201928d88106103de575b918e918a999897969594930160051c01915b8281106103d0575050610125565b5f81558998508e91016103c2565b925081926103b0565b602289634e487b7160e01b5f525260245ffd5b90607f169061010e565b634e487b7160e01b5f52604160045260245ffd5b015190505f806100e2565b5f8681528d81208f9550929190601f198516908f5b82821061046c5750508411610455575b505050811b0182556100f3565b01515f1983871b60f8161c191690555f8080610448565b91929395968291958786015181550195019301908f95949392918f610438565b90919250855f5284825f209181860160051c83019386106104d4575b918f91869594930160051c01915b8281106104c657508d91506100cd565b5f81558594508f91016104b6565b925081926104a8565b634e487b7160e01b5f52602260045260245ffd5b92607f16926100b7565b5f80fd5b608081019081106001600160401b0382111761040457604052565b601f909101601f19168101906001600160401b0382119082101761040457604052565b51906001600160a01b03821682036104fb57565b6001600160401b03811161040457601f01601f191660200190565b81601f820112156104fb5780519061058382610551565b92610591604051948561051a565b828452602083830101116104fb57815f9260208093018386015e8301015290565b6040805163313ce56760e01b6020820190815260048252909291830191906001600160401b03831184841017610404575f938493604052519160018060a01b03165afa3d1561065f573d9061060682610551565b91610614604051938461051a565b82523d5f602084013e5b80610653575b610630575b505f905f90565b6020818051810103126104fb576020015160ff8111610629579060ff6001921690565b50602081511015610624565b60609061061e565b905f602091828151910182855af1156106c1575f513d6106b857506001600160a01b0381163b155b6106965750565b604051635274afe760e01b81526001600160a01b039091166004820152602490fd5b6001141561068f565b6040513d5f823e3d90fdfe604060808152600480361015610013575f80fd5b5f3560e01c90816301e1d11414611699578163023b1fc9146115e757816305a363de146115cd57816306fdde03146114d957816307a2d13a146107d857816308a01675146114ab578163095ea7b3146114035781630a28a477146103475781631609be1d1461129557816318160ddd1461127757816323b872dd1461123b57816324a9d85314611216578163313ce567146111bb57816338d52e0f146111785781633c1bda091461115a5781633eb6e8461461113e5781633f4ba83a146110cf578163402d267d146110a95781634cdad5061461108b57816352ef194a1461106f578163568efc07146110515781635c975abb1461102b5781636e553f6514610e7b5781636ff1c9bc14610cc957816370a0823114610395578163715018a614610c6e57816373f38ee014610c505781637f98aa7114610c0c5781638456cb5914610bad5781638da5cb5b14610b8557816394bf804d146109c657816395d89b41146108c4578163a0c1f15e1461089c578163a42dce801461080d578163a9059cbb146107dd578163b3d7f6b9146107d8578163b460af9414610651578163ba0876521461049f578163c0789dcb14610481578163c415b95c14610459578163c63d75b61461042b578163c6e6f5921461040d578163ce96cb77146103d6578163d905777e14610395578163dd62ed3e1461034c578163ef8b30f714610347578163f0f5907d146102fa578163f2fde38b1461026b575063ff0eed9f14610238575f80fd5b34610267575f36600319011261026757602090610253611c93565b61025b6119a5565b90600160065551908152f35b5f80fd5b90503461026757602036600319011261026757610286611705565b9061028f611a6e565b6001600160a01b039182169283156102e4575050600554826bffffffffffffffffffffffff60a01b821617600555167f8be0079c531659141344cd1fd0a4f28419497f9722a3daafe3b4186f6b6457e05f80a3005b905f6024925191631e4fbdf760e01b8352820152fd5b905034610267576020366003190112610267577f29bbb39c738a5da8394774006ed1b0ff5a7b1051f5c1e7b4142b5f36950418ed91602091359061033c611a6e565b81600b5551908152a1005b611731565b8234610267578060031936011261026757602090610368611705565b61037061171b565b9060018060a01b038091165f5260018452825f2091165f528252805f20549051908152f35b8234610267576020366003190112610267576020906103cf6103b5611705565b6001600160a01b03165f9081526020819052604090205490565b9051908152f35b8234610267576020366003190112610267576020906001600160a01b036103fb611705565b165f525f82526103cf815f205461188a565b8234610267576020366003190112610267576103cf6020923561197e565b823461026757602036600319011261026757602090610448611705565b506103cf610454611900565b61197e565b8234610267575f3660031901126102675760085490516001600160a01b039091168152602090f35b8234610267575f36600319011261026757602090600c549051908152f35b8234610267576104ae3661174f565b9092916104b9611c93565b6001600160a01b0382165f9081526020819052604090205481116106195761055f946104e48261188a565b9460018060a01b0391610501848487169687330361060957611d8d565b8551631a4ca37b60e21b81527f000000000000000000000000000000000000000000000000000000000000000084166001600160a01b03811692820192835260208084018a90523060408501529990928a9183918291606090910190565b03815f7387870bca3f3fd6335c3f4ce8392d69350b4fa4e25af180156105ff5789899285926105d0575b505061059492611a9a565b8451928684528784015216907ffbde797d201c681b91056529119e0b02407c7bb96a4a2c75c01fc9667232c8db843392a4600160065551908152f35b91508092503d83116105f8575b6105e781836117ac565b81010312610267578682898b610589565b503d6105dd565b87513d5f823e3d90fd5b610614823383611aec565b611d8d565b825162461bcd60e51b815260208187015260126024820152710a4cac8cacada40caf0c6cacac8e640dac2f60731b6044820152606490fd5b8234610267576106603661174f565b90929161066b611c93565b6001600160a01b0382165f9081526020819052604090205461068c9061188a565b948582116107bd5761071d95506106a28261197e565b9460018060a01b03916106bf878487169687330361060957611d8d565b8551631a4ca37b60e21b81527f000000000000000000000000000000000000000000000000000000000000000084166001600160a01b03811692820192835260208084018790523060408501529990928a9183918291606090910190565b03815f7387870bca3f3fd6335c3f4ce8392d69350b4fa4e25af180156105ff57898692859261078e575b505061075292611a9a565b8451928352858784015216907ffbde797d201c681b91056529119e0b02407c7bb96a4a2c75c01fc9667232c8db843392a4600160065551908152f35b91508092503d83116107b6575b6107a581836117ac565b81010312610267578382898b610747565b503d61079b565b856044928551926312a96a8d60e01b84528301526024820152fd5b6116df565b82346102675780600319360112610267576020906108066107fc611705565b6024359033611bb9565b5160018152f35b90503461026757602036600319011261026757610828611705565b610830611a6e565b6001600160a01b031691821561088f5782610849611c93565b6108516119a5565b506001600655600880546001600160a01b031916821790557fe5693914d19c789bdee50a362998c0bc8d035a835f9871da5d51152f0582c34f5f80a2005b5163bb0bac9960e01b8152fd5b8234610267575f3660031901126102675760075490516001600160a01b039091168152602090f35b8234610267575f366003190112610267578051905f9280549060018260011c91600184169384156109bc575b60209485851081146109a957848852908115610987575060011461092e575b61092a8686610920828b03836117ac565b51918291826116b5565b0390f35b5f9081529295507f8a35acfbc15ff81a39ae7d344fd709f28e8600b4aa8c65c6b64bfe7fe36bd19b5b828410610974575050508261092a9461092092820101948661090f565b8054868501880152928601928101610957565b60ff191687860152505050151560051b83010192506109208261092a8661090f565b602283634e487b7160e01b5f525260245ffd5b92607f16926108f0565b82346102675780600319360112610267578135906109e261171b565b916109eb611c93565b6109f3611cb6565b8015610b5457610a028161188a565b92610a1484610a0f6117ce565b611971565b600b54809111610b2657506001600160a01b03907f00000000000000000000000000000000000000000000000000000000000000008216610a5786303384611cd7565b7387870bca3f3fd6335c3f4ce8392d69350b4fa4e296873b1561026757855163617ba03760e01b81526001600160a01b03909216908201908152602081018790523060408201525f606082018190529197889182908490829060800103925af1958615610b1c57602096610b0d575b50610ad18382611d30565b8351928584528684015216907fdcbc1c05240f31ff3ad067ef1ee35ce4997762752e3a095284754544f4c709d7833392a3600160065551908152f35b610b1690611784565b86610ac6565b84513d5f823e3d90fd5b858486610b3d604494610b376117ce565b906118f3565b9151630ffbb4b960e11b8152928301526024820152fd5b815162461bcd60e51b8152602081860152600b60248201526a5a65726f2073686172657360a81b6044820152606490fd5b8234610267575f3660031901126102675760055490516001600160a01b039091168152602090f35b8234610267575f3660031901126102675760207f62e78cea01bee320cd4e420270b5ea74000d11b0c9f74754ebdbfc544b05a25891610bea611a6e565b610bf2611cb6565b6005805460ff60a01b1916600160a01b17905551338152a1005b8234610267575f36600319011261026757608090610c286117ce565b90600254906009549061ffff60075460a01c1692815194855260208501528301526060820152f35b8234610267575f366003190112610267576020906009549051908152f35b34610267575f36600319011261026757610c86611a6e565b600580546001600160a01b031981169091555f906001600160a01b03167f8be0079c531659141344cd1fd0a4f28419497f9722a3daafe3b4186f6b6457e08280a3005b9050346102675760208060031936011261026757610ce5611705565b91610cee611a6e565b610cf6611c93565b6001600160a01b038381169490610d0e8615156118b3565b7f0000000000000000000000000000000000000000000000000000000000000000168151631a4ca37b60e21b815281848201525f19602482015230604482015284816064815f7387870bca3f3fd6335c3f4ce8392d69350b4fa4e25af18015610e7157908591610e48575b50508151926370a0823160e01b845230908401528383602481845afa928315610e3e575f93610ded575b50827ff779df072f94d207563b1ba8c286814086f1e6bb436a2652e307dccc56ed79e89581610ddc575b50505051908152a26001600655005b610de592611a9a565b5f8281610dcd565b9492508385813d8311610e37575b610e0581836117ac565b81010312610267577ff779df072f94d207563b1ba8c286814086f1e6bb436a2652e307dccc56ed79e894519294610da3565b503d610dfb565b82513d5f823e3d90fd5b813d8311610e6a575b610e5b81836117ac565b8101031261026757835f610d79565b503d610e51565b83513d5f823e3d90fd5b8234610267578060031936011261026757813590610e9761171b565b91610ea0611c93565b610ea8611cb6565b801561101b57610eba81610a0f6117ce565b600b5480911161100a5750610ece8161197e565b928315610fd2576001600160a01b03907f00000000000000000000000000000000000000000000000000000000000000008216610f0d84303384611cd7565b7387870bca3f3fd6335c3f4ce8392d69350b4fa4e296873b1561026757855163617ba03760e01b81526001600160a01b03909216908201908152602081018590523060408201525f606082018190529197889182908490829060800103925af1958615610b1c57602096610fc3575b50610f878582611d30565b8351928352848684015216907fdcbc1c05240f31ff3ad067ef1ee35ce4997762752e3a095284754544f4c709d7833392a3600160065551908152f35b610fcc90611784565b86610f7c565b825162461bcd60e51b8152602081870152601260248201527116995c9bc81cda185c995cc81b5a5b9d195960721b6044820152606490fd5b6044949350610b3d90610b376117ce565b8151630cb65c7760e21b81528490fd5b8234610267575f3660031901126102675760209060ff60055460a01c1690519015158152f35b8234610267575f36600319011261026757602090600a549051908152f35b8234610267575f366003190112610267576020906103cf611922565b8234610267576020366003190112610267576103cf6020923561188a565b8234610267576020366003190112610267576020906110c6611705565b506103cf611900565b8234610267575f366003190112610267576110e8611a6e565b6005549160ff8360a01c16156111305760ff60a01b19831660055581513381527f5db9ee0a495bf2e6ff9c91a7834c1ba4fdd244a5e8aa4e537bd38aeae4b073aa90602090a1005b9051638dfc202b60e01b8152fd5b8234610267575f36600319011261026757602090516127108152f35b8234610267575f36600319011261026757602090600b549051908152f35b8234610267575f36600319011261026757517f00000000000000000000000000000000000000000000000000000000000000006001600160a01b03168152602090f35b8234610267575f3660031901126102675760ff7f0000000000000000000000000000000000000000000000000000000000000000169060ff8211611203576020925051908152f35b601183634e487b7160e01b5f525260245ffd5b8234610267575f3660031901126102675760209061ffff60075460a01c169051908152f35b82346102675760603660031901126102675760209061080661125b611705565b61126361171b565b60443591611272833383611aec565b611bb9565b8234610267575f366003190112610267576020906002549051908152f35b82346102675780600319360112610267576112ae611705565b916112b761171b565b906112c0611a6e565b6001600160a01b03938416937f0000000000000000000000000000000000000000000000000000000000000000811685146113c057806007541685146113875761130d90831615156118b3565b8251906370a0823160e01b82523090820152602081602481875afa92831561137e57505f9261134a575b508161133f57005b61134892611a9a565b005b9091506020813d602011611376575b81611366602093836117ac565b8101031261026757519083611337565b3d9150611359565b513d5f823e3d90fd5b835162461bcd60e51b8152602081840152601360248201527221b0b73737ba1039bbb2b2b81030aa37b5b2b760691b6044820152606490fd5b835162461bcd60e51b8152602081840152601d60248201527f43616e6e6f7420737765657020756e6465726c79696e672061737365740000006044820152606490fd5b823461026757806003193601126102675761141c611705565b602435903315611495576001600160a01b031690811561147f5760209350335f5260018452825f20825f52845280835f205582519081527f8c5be1e5ebec7d5bd14f71427d1e84f3dd0314c0f7b2291e5b200ac8c7c3b925843392a35160018152f35b8251634a1406b160e11b81525f81860152602490fd5b825163e602df0560e01b81525f81860152602490fd5b8234610267575f36600319011261026757602090517387870bca3f3fd6335c3f4ce8392d69350b4fa4e28152f35b8234610267575f366003190112610267578051905f9260035460018160011c916001811680156115c3575b60209485851082146115b057508387529081156115905750600114611536575b5050506109208261092a9403836117ac565b60035f9081529295507fc2575a0e9e593c00f959f8c92f12db2869c3395a3b0502d05e2516446f71f85b5b82841061157d575050508261092a946109209282010194611524565b8054868501880152928601928101611561565b60ff1916868501525050151560051b83010192506109208261092a611524565b602290634e487b7160e01b5f525260245ffd5b92607f1692611504565b8234610267575f36600319011261026757602090515f8152f35b90503461026757602036600319011261026757803561ffff81169182820361026757611611611a6e565b61138880841161167d577f1582462fa18a3c32e1179d055ebefbaee59312efe6743b4d57fc45793b3066a76020858786611649611c93565b6116516119a5565b5060016006556007805461ffff60a01b191660a09290921b61ffff60a01b1691909117905551908152a1005b9150916044935192633c057d7b60e01b84528301526024820152fd5b8234610267575f366003190112610267576020906103cf6117ce565b602060409281835280519182918282860152018484015e5f828201840152601f01601f1916010190565b346102675760203660031901126102675760206116fd60043561188a565b604051908152f35b600435906001600160a01b038216820361026757565b602435906001600160a01b038216820361026757565b346102675760203660031901126102675760206116fd60043561197e565b606090600319011261026757600435906001600160a01b03906024358281168103610267579160443590811681036102675790565b67ffffffffffffffff811161179857604052565b634e487b7160e01b5f52604160045260245ffd5b90601f8019910116810190811067ffffffffffffffff82111761179857604052565b6007546040516370a0823160e01b815230600482015290602090829060249082906001600160a01b03165afa90811561183a575f9161180b575090565b90506020813d602011611832575b81611826602093836117ac565b81010312610267575190565b3d9150611819565b6040513d5f823e3d90fd5b8181029291811591840414171561185857565b634e487b7160e01b5f52601160045260245ffd5b8115611876570490565b634e487b7160e01b5f52601260045260245ffd5b60025480611896575090565b6118ab6118b0926118a56117ce565b90611845565b61186c565b90565b156118ba57565b60405162461bcd60e51b8152602060048201526011602482015270125b9d985b1a59081c9958da5c1a595b9d607a1b6044820152606490fd5b9190820391821161185857565b600b5461190b6117ce565b8082111561191c576118b0916118f3565b50505f90565b61192a6117ce565b600a54808211801590611960575b61191c5761194c61195c91612710936118f3565b61ffff60075460a01c1690611845565b0490565b5061ffff60075460a01c1615611938565b9190820180921161185857565b6002548061198a575090565b611997906118b092611845565b61199f6117ce565b9061186c565b6119ad6117ce565b600a54808211801590611a5d575b611a53576127106119d261194c6119df93856118f3565b048092816119e9576118f3565b600a5542600c5590565b7ffd91a45ffa6c294f7c70b6b3b4f91eb24977bc12134dcf4786acc839ddfc3da86060611a158461197e565b600854611a2c9082906001600160a01b0316611d30565b611a3885600954611971565b600955604051908582526020820152426040820152a16118f3565b505042600c555f90565b5061ffff60075460a01c16156119bb565b6005546001600160a01b03163303611a8257565b60405163118cdaa760e01b8152336004820152602490fd5b60405163a9059cbb60e01b60208201526001600160a01b039092166024830152604480830193909352918152608081019167ffffffffffffffff83118284101761179857611aea92604052611e2c565b565b919060018060a01b0380931692835f526001602052604093845f2091831691825f52602052845f2054925f198410611b27575b505050505050565b848410611b8957508015611b72578115611b5b575f526001602052835f20905f5260205203905f20555f8080808080611b1f565b8451634a1406b160e11b81525f6004820152602490fd5b845163e602df0560e01b81525f6004820152602490fd5b8551637dc7a0d960e11b81526001600160a01b039190911660048201526024810184905260448101859052606490fd5b916001600160a01b03808416928315611c7b5716928315611c6357825f525f60205260405f205490828210611c315750817fddf252ad1be2c89b69c2b068fc378daa952ba7f163c4a11628f55a4df523b3ef92602092855f525f84520360405f2055845f5260405f20818154019055604051908152a3565b60405163391434e360e21b81526001600160a01b03919091166004820152602481019190915260448101829052606490fd5b60405163ec442f0560e01b81525f6004820152602490fd5b604051634b637e8f60e11b81525f6004820152602490fd5b600260065414611ca4576002600655565b604051633ee5aeb560e01b8152600490fd5b60ff60055460a01c16611cc557565b60405163d93c066560e01b8152600490fd5b6040516323b872dd60e01b60208201526001600160a01b03928316602482015292909116604483015260648083019390935291815260a081019181831067ffffffffffffffff84111761179857611aea92604052611e2c565b6001600160a01b0316908115611c63577fddf252ad1be2c89b69c2b068fc378daa952ba7f163c4a11628f55a4df523b3ef602082611d715f94600254611971565b60025584845283825260408420818154019055604051908152a3565b91906001600160a01b038316908115611c7b57815f525f60205260405f205493818510611dfa57506020817fddf252ad1be2c89b69c2b068fc378daa952ba7f163c4a11628f55a4df523b3ef925f95968587528684520360408620558060025403600255604051908152a3565b60405163391434e360e21b81526001600160a01b03919091166004820152602481018590526044810191909152606490fd5b905f602091828151910182855af11561183a575f513d611e7d57506001600160a01b0381163b155b611e5b5750565b604051635274afe760e01b81526001600160a01b039091166004820152602490fd5b60011415611e5456fea26469706673582212209e76f815e09e74d3dff8264e5e956e3d0704c2922593d51d2fcda02b1dd98fd964736f6c63430008190033000000000000000000000000a0b86991c6218b36c1d19d4a2e9eb0ce3606eb4800000000000000000000000098c23e9d8f34fefb1b7bd6a91b7ff122f4e16f5c00000000000000000000000000000000000000000000000000000000000000a000000000000000000000000000000000000000000000000000000000000000e00000000000000000000000008aaee2071a400cc60927e46d53f751e521ef4d35000000000000000000000000000000000000000000000000000000000000000f416176652055534443205661756c74000000000000000000000000000000000000000000000000000000000000000000000000000000000000000000000000066176555344430000000000000000000000000000000000000000000000000000",
        "nonce": "0x66",
        "chainId": "0x8"
      },
      "additionalContracts": [],
      "isFixedGasLimit": false
    },
    {
      "hash": "0xc44baef226bced79e43cc95d48c2365a1909b8dee189872ec04e01a51ffb8f24",
      "transactionType": "CALL",
      "contractName": null,
      "contractAddress": "0xa0b86991c6218b36c1d19d4a2e9eb0ce3606eb48",
      "function": "approve(address,uint256)",
      "arguments": [
        "0x044fD1E5aEAE91410a7865aab984ba9632679acA",
        "100000000"
      ],
      "transaction": {
        "from": "0x8aaee2071a400cc60927e46d53f751e521ef4d35",
        "to": "0xa0b86991c6218b36c1d19d4a2e9eb0ce3606eb48",
        "gas": "0x12bc3",
        "value": "0x0",
        "input": "0x095ea7b3000000000000000000000000044fd1e5aeae91410a7865aab984ba9632679aca0000000000000000000000000000000000000000000000000000000005f5e100",
        "nonce": "0x67",
        "chainId": "0x8"
      },
      "additionalContracts": [],
      "isFixedGasLimit": false
    },
    {
      "hash": "0xc1bdf2a32bd6369271f0eb8e2f74c94ba5a0d94cc191f04893491e9f1299b381",
      "transactionType": "CALL",
      "contractName": "AaveERC4626Vault",
      "contractAddress": "0x044fd1e5aeae91410a7865aab984ba9632679aca",
      "function": "deposit(uint256,address)",
      "arguments": [
        "100000000",
        "0x8AaEe2071A400cC60927e46D53f751e521ef4D35"
      ],
      "transaction": {
        "from": "0x8aaee2071a400cc60927e46d53f751e521ef4d35",
        "to": "0x044fd1e5aeae91410a7865aab984ba9632679aca",
        "gas": "0x5e728",
        "value": "0x0",
        "input": "0x6e553f650000000000000000000000000000000000000000000000000000000005f5e1000000000000000000000000008aaee2071a400cc60927e46d53f751e521ef4d35",
        "nonce": "0x68",
        "chainId": "0x8"
      },
      "additionalContracts": [],
      "isFixedGasLimit": false
    },
    {
      "hash": "0x73700c273f23a89265d6c3fe99da70756b1506953c1fcd3a88592da7d8d5ca1e",
      "transactionType": "CALL",
      "contractName": "AaveERC4626Vault",
      "contractAddress": "0x044fd1e5aeae91410a7865aab984ba9632679aca",
      "function": "withdraw(uint256,address,address)",
      "arguments": [
        "50000000",
        "0x8AaEe2071A400cC60927e46D53f751e521ef4D35",
        "0x8AaEe2071A400cC60927e46D53f751e521ef4D35"
      ],
      "transaction": {
        "from": "0x8aaee2071a400cc60927e46d53f751e521ef4d35",
        "to": "0x044fd1e5aeae91410a7865aab984ba9632679aca",
        "gas": "0x4348c",
        "value": "0x0",
        "input": "0xb460af940000000000000000000000000000000000000000000000000000000002faf0800000000000000000000000008aaee2071a400cc60927e46d53f751e521ef4d350000000000000000000000008aaee2071a400cc60927e46d53f751e521ef4d35",
        "nonce": "0x69",
        "chainId": "0x8"
      },
      "additionalContracts": [],
      "isFixedGasLimit": false
    },
    {
      "hash": "0x4b59d3b697e5a160ee87528e7d79129f37ee01b8b6418d4eaf337057251489b9",
      "transactionType": "CALL",
      "contractName": null,
      "contractAddress": "0xa0b86991c6218b36c1d19d4a2e9eb0ce3606eb48",
      "function": "transfer(address,uint256)",
      "arguments": [
        "0x0000000000000000000000000000000000000111",
        "50000000"
      ],
      "transaction": {
        "from": "0x8aaee2071a400cc60927e46d53f751e521ef4d35",
        "to": "0xa0b86991c6218b36c1d19d4a2e9eb0ce3606eb48",
        "gas": "0xf27e",
        "value": "0x0",
        "input": "0xa9059cbb00000000000000000000000000000000000000000000000000000000000001110000000000000000000000000000000000000000000000000000000002faf080",
        "nonce": "0x6a",
        "chainId": "0x8"
      },
      "additionalContracts": [],
      "isFixedGasLimit": false
    },
    {
      "hash": "0x295afd88f38a1f188c2e06811e2ef14bd034527007f468c02b2c913a325cc555",
      "transactionType": "CALL",
      "contractName": null,
      "contractAddress": "0xa0b86991c6218b36c1d19d4a2e9eb0ce3606eb48",
      "function": "transfer(address,uint256)",
      "arguments": [
        "0x0000000000000000000000000000000000000222",
        "75000000"
      ],
      "transaction": {
        "from": "0x8aaee2071a400cc60927e46d53f751e521ef4d35",
        "to": "0xa0b86991c6218b36c1d19d4a2e9eb0ce3606eb48",
        "gas": "0x14ec1",
        "value": "0x0",
        "input": "0xa9059cbb000000000000000000000000000000000000000000000000000000000000022200000000000000000000000000000000000000000000000000000000047868c0",
        "nonce": "0x6b",
        "chainId": "0x8"
      },
      "additionalContracts": [],
      "isFixedGasLimit": false
    },
    {
      "hash": "0x3908bcbe8a012997f8cde62d1f3a1ac66ffaba5adf6310ba25f5a831c3eb77ab",
      "transactionType": "CALL",
      "contractName": null,
      "contractAddress": "0xa0b86991c6218b36c1d19d4a2e9eb0ce3606eb48",
      "function": "approve(address,uint256)",
      "arguments": [
        "0x044fD1E5aEAE91410a7865aab984ba9632679acA",
        "50000000"
      ],
      "transaction": {
        "from": "0x8aaee2071a400cc60927e46d53f751e521ef4d35",
        "to": "0xa0b86991c6218b36c1d19d4a2e9eb0ce3606eb48",
        "gas": "0x13d76",
        "value": "0x0",
        "input": "0x095ea7b3000000000000000000000000044fd1e5aeae91410a7865aab984ba9632679aca0000000000000000000000000000000000000000000000000000000002faf080",
        "nonce": "0x6c",
        "chainId": "0x8"
      },
      "additionalContracts": [],
      "isFixedGasLimit": false
    },
    {
      "hash": "0x57da095294505409dc6b0c6e6afe645b60f2f0561df548cda43a517ddee4ba83",
      "transactionType": "CALL",
      "contractName": "AaveERC4626Vault",
      "contractAddress": "0x044fd1e5aeae91410a7865aab984ba9632679aca",
      "function": "deposit(uint256,address)",
      "arguments": [
        "50000000",
        "0x0000000000000000000000000000000000000111"
      ],
      "transaction": {
        "from": "0x8aaee2071a400cc60927e46d53f751e521ef4d35",
        "to": "0x044fd1e5aeae91410a7865aab984ba9632679aca",
        "gas": "0x4e07b",
        "value": "0x0",
        "input": "0x6e553f650000000000000000000000000000000000000000000000000000000002faf0800000000000000000000000000000000000000000000000000000000000000111",
        "nonce": "0x6d",
        "chainId": "0x8"
      },
      "additionalContracts": [],
      "isFixedGasLimit": false
    },
    {
      "hash": "0x74f5323aee305f1b3a2f88d2d97a7670e635578769aee295a8d242055ed752f3",
      "transactionType": "CALL",
      "contractName": null,
      "contractAddress": "0xa0b86991c6218b36c1d19d4a2e9eb0ce3606eb48",
      "function": "approve(address,uint256)",
      "arguments": [
        "0x044fD1E5aEAE91410a7865aab984ba9632679acA",
        "75000000"
      ],
      "transaction": {
        "from": "0x8aaee2071a400cc60927e46d53f751e521ef4d35",
        "to": "0xa0b86991c6218b36c1d19d4a2e9eb0ce3606eb48",
        "gas": "0x13d76",
        "value": "0x0",
        "input": "0x095ea7b3000000000000000000000000044fd1e5aeae91410a7865aab984ba9632679aca00000000000000000000000000000000000000000000000000000000047868c0",
        "nonce": "0x6e",
        "chainId": "0x8"
      },
      "additionalContracts": [],
      "isFixedGasLimit": false
    },
    {
      "hash": "0xace3a91248a8f4307bb3bb9d3b8d60de70f3d8caabf854534a64ffd14d706436",
      "transactionType": "CALL",
      "contractName": "AaveERC4626Vault",
      "contractAddress": "0x044fd1e5aeae91410a7865aab984ba9632679aca",
      "function": "deposit(uint256,address)",
      "arguments": [
        "75000000",
        "0x0000000000000000000000000000000000000222"
      ],
      "transaction": {
        "from": "0x8aaee2071a400cc60927e46d53f751e521ef4d35",
        "to": "0x044fd1e5aeae91410a7865aab984ba9632679aca",
        "gas": "0x4e07b",
        "value": "0x0",
        "input": "0x6e553f6500000000000000000000000000000000000000000000000000000000047868c00000000000000000000000000000000000000000000000000000000000000222",
        "nonce": "0x6f",
        "chainId": "0x8"
      },
      "additionalContracts": [],
      "isFixedGasLimit": false
    },
    {
      "hash": "0x3e664d15722f6789922ea7e250010ad1757fb2e8b70d0f645ffc2f181eae4e8d",
      "transactionType": "CALL",
      "contractName": "AaveERC4626Vault",
      "contractAddress": "0x044fd1e5aeae91410a7865aab984ba9632679aca",
      "function": "setFeeBps(uint16)",
      "arguments": [
        "1000"
      ],
      "transaction": {
        "from": "0x8aaee2071a400cc60927e46d53f751e521ef4d35",
        "to": "0x044fd1e5aeae91410a7865aab984ba9632679aca",
        "gas": "0x1647f",
        "value": "0x0",
        "input": "0x023b1fc900000000000000000000000000000000000000000000000000000000000003e8",
        "nonce": "0x70",
        "chainId": "0x8"
      },
      "additionalContracts": [],
      "isFixedGasLimit": false
    },
    {
      "hash": "0xc87fc8a86af415ae921c6a4295ebe5c160236fe8aadc265fed3036c10a2761b6",
      "transactionType": "CALL",
      "contractName": "AaveERC4626Vault",
      "contractAddress": "0x044fd1e5aeae91410a7865aab984ba9632679aca",
      "function": "accruePerformanceFee()",
      "arguments": [],
      "transaction": {
        "from": "0x8aaee2071a400cc60927e46d53f751e521ef4d35",
        "to": "0x044fd1e5aeae91410a7865aab984ba9632679aca",
        "gas": "0x283a3",
        "value": "0x0",
        "input": "0xff0eed9f",
        "nonce": "0x71",
        "chainId": "0x8"
      },
      "additionalContracts": [],
      "isFixedGasLimit": false
    },
    {
      "hash": "0x6b0cf4482af16c6e0210a2d7cad23278428e9d97e47fdfebb9eb9a1e2419fc7e",
      "transactionType": "CALL",
      "contractName": "AaveERC4626Vault",
      "contractAddress": "0x044fd1e5aeae91410a7865aab984ba9632679aca",
      "function": "setVaultCap(uint256)",
      "arguments": [
        "500000000"
      ],
      "transaction": {
        "from": "0x8aaee2071a400cc60927e46d53f751e521ef4d35",
        "to": "0x044fd1e5aeae91410a7865aab984ba9632679aca",
        "gas": "0xaebd",
        "value": "0x0",
        "input": "0xf0f5907d000000000000000000000000000000000000000000000000000000001dcd6500",
        "nonce": "0x72",
        "chainId": "0x8"
      },
      "additionalContracts": [],
      "isFixedGasLimit": false
    },
    {
      "hash": "0x6f1793e1f76267cd93ab906a134f7e46fb98d0dc437cbb58465c28385a4ab7dc",
      "transactionType": "CALL",
      "contractName": "AaveERC4626Vault",
      "contractAddress": "0x044fd1e5aeae91410a7865aab984ba9632679aca",
      "function": "pause()",
      "arguments": [],
      "transaction": {
        "from": "0x8aaee2071a400cc60927e46d53f751e521ef4d35",
        "to": "0x044fd1e5aeae91410a7865aab984ba9632679aca",
        "gas": "0x9821",
        "value": "0x0",
        "input": "0x8456cb59",
        "nonce": "0x73",
        "chainId": "0x8"
      },
      "additionalContracts": [],
      "isFixedGasLimit": false
    },
    {
      "hash": "0x2148376c2666d27acc3eb7d0035700de3f1312e30cd10ae0f0a3cc9cf4dda538",
      "transactionType": "CALL",
      "contractName": "AaveERC4626Vault",
      "contractAddress": "0x044fd1e5aeae91410a7865aab984ba9632679aca",
      "function": "unpause()",
      "arguments": [],
      "transaction": {
        "from": "0x8aaee2071a400cc60927e46d53f751e521ef4d35",
        "to": "0x044fd1e5aeae91410a7865aab984ba9632679aca",
        "gas": "0x9609",
        "value": "0x0",
        "input": "0x3f4ba83a",
        "nonce": "0x74",
        "chainId": "0x8"
      },
      "additionalContracts": [],
      "isFixedGasLimit": false
    }
  ],
  "receipts": [
    {
      "status": "0x1",
      "cumulativeGasUsed": "0x1ea061",
      "logs": [
        {
          "address": "0x044fd1e5aeae91410a7865aab984ba9632679aca",
          "topics": [
            "0x8be0079c531659141344cd1fd0a4f28419497f9722a3daafe3b4186f6b6457e0",
            "0x0000000000000000000000000000000000000000000000000000000000000000",
            "0x0000000000000000000000008aaee2071a400cc60927e46d53f751e521ef4d35"
          ],
          "data": "0x",
          "blockHash": "0xa1db7517d78174ffdc4c0ec24e30cda5a307107006f17591ec01122ae337769f",
          "blockNumber": "0x169f8a5",
          "transactionHash": "0xb5bb97d44bfac994dacd07224a77a58917ea4873af711b89c373ee226ab8c6f1",
          "transactionIndex": "0x0",
          "logIndex": "0x0",
          "removed": false
        },
        {
          "address": "0xa0b86991c6218b36c1d19d4a2e9eb0ce3606eb48",
          "topics": [
            "0x8c5be1e5ebec7d5bd14f71427d1e84f3dd0314c0f7b2291e5b200ac8c7c3b925",
            "0x000000000000000000000000044fd1e5aeae91410a7865aab984ba9632679aca",
            "0x00000000000000000000000087870bca3f3fd6335c3f4ce8392d69350b4fa4e2"
          ],
          "data": "0xffffffffffffffffffffffffffffffffffffffffffffffffffffffffffffffff",
          "blockHash": "0xa1db7517d78174ffdc4c0ec24e30cda5a307107006f17591ec01122ae337769f",
          "blockNumber": "0x169f8a5",
          "transactionHash": "0xb5bb97d44bfac994dacd07224a77a58917ea4873af711b89c373ee226ab8c6f1",
          "transactionIndex": "0x0",
          "logIndex": "0x1",
          "removed": false
        }
      ],
      "logsBloom": "0x00000000000000000000000000000000000000000000000000c0000000000000000000000000000000000000000000000000000000000000000010000020000000000000000000000800040000000000000100000000000000000000000000000000000002000180000000000000090000000000000000000000000000000040000000000000000000000000000000000000000001000000000004000000000802000000000020000000000000000000000000000000000000000000000000000000000000000000000000000000000000000000000c000000000000000020000010000000000000200000000000000000000000000002000000000000000000",
      "type": "0x2",
      "transactionHash": "0xb5bb97d44bfac994dacd07224a77a58917ea4873af711b89c373ee226ab8c6f1",
      "transactionIndex": "0x0",
      "blockHash": "0xa1db7517d78174ffdc4c0ec24e30cda5a307107006f17591ec01122ae337769f",
      "blockNumber": "0x169f8a5",
      "gasUsed": "0x1ea061",
      "effectiveGasPrice": "0x2",
      "blobGasUsed": "0x0",
      "from": "0x8aaee2071a400cc60927e46d53f751e521ef4d35",
      "to": null,
      "contractAddress": "0x044fd1e5aeae91410a7865aab984ba9632679aca"
    },
    {
      "status": "0x1",
      "cumulativeGasUsed": "0xaf90",
      "logs": [
        {
          "address": "0xa0b86991c6218b36c1d19d4a2e9eb0ce3606eb48",
          "topics": [
            "0xddf252ad1be2c89b69c2b068fc378daa952ba7f163c4a11628f55a4df523b3ef",
            "0x0000000000000000000000008aaee2071a400cc60927e46d53f751e521ef4d35",
            "0x0000000000000000000000000000000000000000000000000000000000000111"
          ],
          "data": "0x0000000000000000000000000000000000000000000000000000000002faf080",
          "blockHash": "0x671a2fffca6255016d7fbdc7ed29e015a440c8d20353c89fdef3604c56eb4eeb",
          "blockNumber": "0x169f8a7",
          "transactionHash": "0x4b59d3b697e5a160ee87528e7d79129f37ee01b8b6418d4eaf337057251489b9",
          "transactionIndex": "0x0",
          "logIndex": "0x0",
          "removed": false
        }
      ],
      "logsBloom": "0x00000000000000000000000000000000000000000000000000000000000000000000000000000000000000000000000000100000000000000000000000000000000000000004000008000008000000000000000000000000000000000000000000000000000000800000000000000100000000000000000000000010000000000000000000000000000000000000000000000000010000000000000000000000000000000000200080000000000000000000000000000000000000000000000000000002000000000000000000000000000000000000000000000000000000000000000000000000000000000000000000000000000002000000000000000000",
      "type": "0x2",
      "transactionHash": "0x4b59d3b697e5a160ee87528e7d79129f37ee01b8b6418d4eaf337057251489b9",
      "transactionIndex": "0x0",
      "blockHash": "0x671a2fffca6255016d7fbdc7ed29e015a440c8d20353c89fdef3604c56eb4eeb",
      "blockNumber": "0x169f8a7",
      "gasUsed": "0xaf90",
      "effectiveGasPrice": "0x2",
      "blobGasUsed": "0x0",
      "from": "0x8aaee2071a400cc60927e46d53f751e521ef4d35",
      "to": "0xa0b86991c6218b36c1d19d4a2e9eb0ce3606eb48",
      "contractAddress": null
    },
    {
      "status": "0x1",
      "cumulativeGasUsed": "0xf25c",
      "logs": [
        {
          "address": "0xa0b86991c6218b36c1d19d4a2e9eb0ce3606eb48",
          "topics": [
            "0xddf252ad1be2c89b69c2b068fc378daa952ba7f163c4a11628f55a4df523b3ef",
            "0x0000000000000000000000008aaee2071a400cc60927e46d53f751e521ef4d35",
            "0x0000000000000000000000000000000000000000000000000000000000000222"
          ],
          "data": "0x00000000000000000000000000000000000000000000000000000000047868c0",
          "blockHash": "0x2fb965b028c1907c7ae9035766959fc7fd5c37ecfc20318b3f33feffd030bb69",
          "blockNumber": "0x169f8a8",
          "transactionHash": "0x295afd88f38a1f188c2e06811e2ef14bd034527007f468c02b2c913a325cc555",
          "transactionIndex": "0x0",
          "logIndex": "0x0",
          "removed": false
        }
      ],
      "logsBloom": "0x00000000000000000000000000000000000000000000000000000000000000000000000000000000000000000000000000000000000000000000000000000000000000000000000008000008000000000000000000000000000000000000000000000000000000800000000000000100000000000000000000000010000400000000000000000000000000000000000000000000010000000000000000000000000000000000200000000000000000000000000000000000000000000002000000000002000000000000000000000000000000000000000000000000000000000000000000000000000000000400000000000000000002000000000000000000",
      "type": "0x2",
      "transactionHash": "0x295afd88f38a1f188c2e06811e2ef14bd034527007f468c02b2c913a325cc555",
      "transactionIndex": "0x0",
      "blockHash": "0x2fb965b028c1907c7ae9035766959fc7fd5c37ecfc20318b3f33feffd030bb69",
      "blockNumber": "0x169f8a8",
      "gasUsed": "0xf25c",
      "effectiveGasPrice": "0x2",
      "blobGasUsed": "0x0",
      "from": "0x8aaee2071a400cc60927e46d53f751e521ef4d35",
      "to": "0xa0b86991c6218b36c1d19d4a2e9eb0ce3606eb48",
      "contractAddress": null
    },
    {
      "status": "0x1",
      "cumulativeGasUsed": "0xd906",
      "logs": [
        {
          "address": "0xa0b86991c6218b36c1d19d4a2e9eb0ce3606eb48",
          "topics": [
            "0x8c5be1e5ebec7d5bd14f71427d1e84f3dd0314c0f7b2291e5b200ac8c7c3b925",
            "0x0000000000000000000000008aaee2071a400cc60927e46d53f751e521ef4d35",
            "0x000000000000000000000000044fd1e5aeae91410a7865aab984ba9632679aca"
          ],
          "data": "0x0000000000000000000000000000000000000000000000000000000005f5e100",
          "blockHash": "0x47b3b620e8c1c5eaa3adbb0ef933820a27e4ac7015e84ca9ccc8d1e2a4b1e6ea",
          "blockNumber": "0x169f8ab",
          "transactionHash": "0xc44baef226bced79e43cc95d48c2365a1909b8dee189872ec04e01a51ffb8f24",
          "transactionIndex": "0x0",
          "logIndex": "0x0",
          "removed": false
        }
      ],
      "logsBloom": "0x00000000000000000000000000000000000000000000000000000000000000000000000000000000000000000000000000000000000000000000100000200000000000000000000008000000000000000000000000000000000000000000000000000000000001800000000000000100000000000000000000000000000000000000000000000000000000000000000000000000010000000000040000000000020000000000200000000000000000000000000000000000000000000000000000000000000000000000000000000000000000000000000000000000000000000010000000000000000000000000000000000000000002000000000000000000",
      "type": "0x2",
      "transactionHash": "0xc44baef226bced79e43cc95d48c2365a1909b8dee189872ec04e01a51ffb8f24",
      "transactionIndex": "0x0",
      "blockHash": "0x47b3b620e8c1c5eaa3adbb0ef933820a27e4ac7015e84ca9ccc8d1e2a4b1e6ea",
      "blockNumber": "0x169f8ab",
      "gasUsed": "0xd906",
      "effectiveGasPrice": "0x2",
      "blobGasUsed": "0x0",
      "from": "0x8aaee2071a400cc60927e46d53f751e521ef4d35",
      "to": "0xa0b86991c6218b36c1d19d4a2e9eb0ce3606eb48",
      "contractAddress": null
    },
    {
      "status": "0x1",
      "cumulativeGasUsed": "0x9646",
      "logs": [
        {
          "address": "0xa0b86991c6218b36c1d19d4a2e9eb0ce3606eb48",
          "topics": [
            "0x8c5be1e5ebec7d5bd14f71427d1e84f3dd0314c0f7b2291e5b200ac8c7c3b925",
            "0x0000000000000000000000008aaee2071a400cc60927e46d53f751e521ef4d35",
            "0x000000000000000000000000044fd1e5aeae91410a7865aab984ba9632679aca"
          ],
          "data": "0x0000000000000000000000000000000000000000000000000000000002faf080",
          "blockHash": "0x061ead8b99f894fa1a360119d5846d1b6c113454a9969b6073b4f0cbb7552557",
          "blockNumber": "0x169f8ac",
          "transactionHash": "0x3908bcbe8a012997f8cde62d1f3a1ac66ffaba5adf6310ba25f5a831c3eb77ab",
          "transactionIndex": "0x0",
          "logIndex": "0x0",
          "removed": false
        }
      ],
      "logsBloom": "0x00000000000000000000000000000000000000000000000000000000000000000000000000000000000000000000000000000000000000000000100000200000000000000000000008000000000000000000000000000000000000000000000000000000000001800000000000000100000000000000000000000000000000000000000000000000000000000000000000000000010000000000040000000000020000000000200000000000000000000000000000000000000000000000000000000000000000000000000000000000000000000000000000000000000000000010000000000000000000000000000000000000000002000000000000000000",
      "type": "0x2",
      "transactionHash": "0x3908bcbe8a012997f8cde62d1f3a1ac66ffaba5adf6310ba25f5a831c3eb77ab",
      "transactionIndex": "0x0",
      "blockHash": "0x061ead8b99f894fa1a360119d5846d1b6c113454a9969b6073b4f0cbb7552557",
      "blockNumber": "0x169f8ac",
      "gasUsed": "0x9646",
      "effectiveGasPrice": "0x2",
      "blobGasUsed": "0x0",
      "from": "0x8aaee2071a400cc60927e46d53f751e521ef4d35",
      "to": "0xa0b86991c6218b36c1d19d4a2e9eb0ce3606eb48",
      "contractAddress": null
    },
    {
      "status": "0x1",
      "cumulativeGasUsed": "0x6e24",
      "logs": [
        {
          "address": "0x044fd1e5aeae91410a7865aab984ba9632679aca",
          "topics": [
            "0x62e78cea01bee320cd4e420270b5ea74000d11b0c9f74754ebdbfc544b05a258"
          ],
          "data": "0x0000000000000000000000008aaee2071a400cc60927e46d53f751e521ef4d35",
          "blockHash": "0x0c57f52152bf23da78e301384f2dcc2052641cf9a4294aa72a11f4037dece7b2",
          "blockNumber": "0x169f8ae",
          "transactionHash": "0x6f1793e1f76267cd93ab906a134f7e46fb98d0dc437cbb58465c28385a4ab7dc",
          "transactionIndex": "0x0",
          "logIndex": "0x0",
          "removed": false
        }
      ],
      "logsBloom": "0x00000000000000000000000000000000000000000000000000400000000000000000000000000000000000000000000000000000000000000000000000000000000000000000000000000400000000000000000000000400000000000000000000000000000000000000000000000000000000010000000000000000000000000000000000000000000008000000000000000000000000000000000000000000000000000000000000000000000000000000000000000000000000000000000000000000000000000000000000000000000000000000000000000000000000000000000000000000200000000000000000000000000000000000000000000000",
      "type": "0x2",
      "transactionHash": "0x6f1793e1f76267cd93ab906a134f7e46fb98d0dc437cbb58465c28385a4ab7dc",
      "transactionIndex": "0x0",
      "blockHash": "0x0c57f52152bf23da78e301384f2dcc2052641cf9a4294aa72a11f4037dece7b2",
      "blockNumber": "0x169f8ae",
      "gasUsed": "0x6e24",
      "effectiveGasPrice": "0x2",
      "blobGasUsed": "0x0",
      "from": "0x8aaee2071a400cc60927e46d53f751e521ef4d35",
      "to": "0x044fd1e5aeae91410a7865aab984ba9632679aca",
      "contractAddress": null
    },
    {
      "status": "0x1",
      "cumulativeGasUsed": "0x9646",
      "logs": [
        {
          "address": "0xa0b86991c6218b36c1d19d4a2e9eb0ce3606eb48",
          "topics": [
            "0x8c5be1e5ebec7d5bd14f71427d1e84f3dd0314c0f7b2291e5b200ac8c7c3b925",
            "0x0000000000000000000000008aaee2071a400cc60927e46d53f751e521ef4d35",
            "0x000000000000000000000000044fd1e5aeae91410a7865aab984ba9632679aca"
          ],
          "data": "0x00000000000000000000000000000000000000000000000000000000047868c0",
          "blockHash": "0x492fbd48b3be40e9743dcd0623d61017582c38a6c90598946470080e807d7430",
          "blockNumber": "0x169f8af",
          "transactionHash": "0x74f5323aee305f1b3a2f88d2d97a7670e635578769aee295a8d242055ed752f3",
          "transactionIndex": "0x0",
          "logIndex": "0x0",
          "removed": false
        }
      ],
      "logsBloom": "0x00000000000000000000000000000000000000000000000000000000000000000000000000000000000000000000000000000000000000000000100000200000000000000000000008000000000000000000000000000000000000000000000000000000000001800000000000000100000000000000000000000000000000000000000000000000000000000000000000000000010000000000040000000000020000000000200000000000000000000000000000000000000000000000000000000000000000000000000000000000000000000000000000000000000000000010000000000000000000000000000000000000000002000000000000000000",
      "type": "0x2",
      "transactionHash": "0x74f5323aee305f1b3a2f88d2d97a7670e635578769aee295a8d242055ed752f3",
      "transactionIndex": "0x0",
      "blockHash": "0x492fbd48b3be40e9743dcd0623d61017582c38a6c90598946470080e807d7430",
      "blockNumber": "0x169f8af",
      "gasUsed": "0x9646",
      "effectiveGasPrice": "0x2",
      "blobGasUsed": "0x0",
      "from": "0x8aaee2071a400cc60927e46d53f751e521ef4d35",
      "to": "0xa0b86991c6218b36c1d19d4a2e9eb0ce3606eb48",
      "contractAddress": null
    },
    {
      "status": "0x1",
      "cumulativeGasUsed": "0x777b",
      "logs": [
        {
          "address": "0x044fd1e5aeae91410a7865aab984ba9632679aca",
          "topics": [
            "0x29bbb39c738a5da8394774006ed1b0ff5a7b1051f5c1e7b4142b5f36950418ed"
          ],
          "data": "0x000000000000000000000000000000000000000000000000000000001dcd6500",
          "blockHash": "0x7fe60c33d03e72b4fcbb3c48c103b8a86ba7909950272988a665fc9cf8cc7212",
          "blockNumber": "0x169f8b0",
          "transactionHash": "0x6b0cf4482af16c6e0210a2d7cad23278428e9d97e47fdfebb9eb9a1e2419fc7e",
          "transactionIndex": "0x0",
          "logIndex": "0x0",
          "removed": false
        }
      ],
      "logsBloom": "0x00000000000000000000000000000000800000000000000000400000000000000000000000000000000000000000000000000000000000000000000000000000000000000000000000000400000000000000000000000000000000000000000000000000000000000000000000000000000000000000000000000000000000000000000000000000000000000000000000000000000000000000000000000000000000000000000000000000000000000000000000000000000000000000000000000000000000000000000000000000000000000000000000000000000000000000000000000000200000000000000000000008000000000000000000000040",
      "type": "0x2",
      "transactionHash": "0x6b0cf4482af16c6e0210a2d7cad23278428e9d97e47fdfebb9eb9a1e2419fc7e",
      "transactionIndex": "0x0",
      "blockHash": "0x7fe60c33d03e72b4fcbb3c48c103b8a86ba7909950272988a665fc9cf8cc7212",
      "blockNumber": "0x169f8b0",
      "gasUsed": "0x777b",
      "effectiveGasPrice": "0x2",
      "blobGasUsed": "0x0",
      "from": "0x8aaee2071a400cc60927e46d53f751e521ef4d35",
      "to": "0x044fd1e5aeae91410a7865aab984ba9632679aca",
      "contractAddress": null
    },
    {
      "status": "0x1",
      "cumulativeGasUsed": "0xdfd5",
      "logs": [],
      "logsBloom": "0x00000000000000000000000000000000000000000000000000000000000000000000000000000000000000000000000000000000000000000000000000000000000000000000000000000000000000000000000000000000000000000000000000000000000000000000000000000000000000000000000000000000000000000000000000000000000000000000000000000000000000000000000000000000000000000000000000000000000000000000000000000000000000000000000000000000000000000000000000000000000000000000000000000000000000000000000000000000000000000000000000000000000000000000000000000000",
      "type": "0x2",
      "transactionHash": "0xc87fc8a86af415ae921c6a4295ebe5c160236fe8aadc265fed3036c10a2761b6",
      "transactionIndex": "0x0",
      "blockHash": "0xa17bfe21185f4bfbf69407456047e811a447543d879c9a41427081ee42e82ba2",
      "blockNumber": "0x169f8b1",
      "gasUsed": "0xdfd5",
      "effectiveGasPrice": "0x2",
      "blobGasUsed": "0x0",
      "from": "0x8aaee2071a400cc60927e46d53f751e521ef4d35",
      "to": "0x044fd1e5aeae91410a7865aab984ba9632679aca",
      "contractAddress": null
    },
    {
      "status": "0x1",
      "cumulativeGasUsed": "0xf50b",
      "logs": [
        {
          "address": "0x044fd1e5aeae91410a7865aab984ba9632679aca",
          "topics": [
            "0x1582462fa18a3c32e1179d055ebefbaee59312efe6743b4d57fc45793b3066a7"
          ],
          "data": "0x00000000000000000000000000000000000000000000000000000000000003e8",
          "blockHash": "0xbf4efcddd848bd6e214b563563577f96f6dd0865b49a14293fdc20691c16091a",
          "blockNumber": "0x169f8b2",
          "transactionHash": "0x3e664d15722f6789922ea7e250010ad1757fb2e8b70d0f645ffc2f181eae4e8d",
          "transactionIndex": "0x0",
          "logIndex": "0x0",
          "removed": false
        }
      ],
      "logsBloom": "0x00000000000000000000000000000000000000000000000000400000000000000000000000000000000000000000000000000000000000000000000000000000000000000000000000000400000000000000000000000000000000000000000000000000000000000000000000000000000000000000000000000000000000000000000008000000000000000000000000000000000000000000000000040000000000000000000000000000000000000000000000000000000000000000000000000000000000000000000000000000000000800000000000000000000000000000000000000000200000000000000000000000000000000000000000000000",
      "type": "0x2",
      "transactionHash": "0x3e664d15722f6789922ea7e250010ad1757fb2e8b70d0f645ffc2f181eae4e8d",
      "transactionIndex": "0x0",
      "blockHash": "0xbf4efcddd848bd6e214b563563577f96f6dd0865b49a14293fdc20691c16091a",
      "blockNumber": "0x169f8b2",
      "gasUsed": "0xf50b",
      "effectiveGasPrice": "0x2",
      "blobGasUsed": "0x0",
      "from": "0x8aaee2071a400cc60927e46d53f751e521ef4d35",
      "to": "0x044fd1e5aeae91410a7865aab984ba9632679aca",
      "contractAddress": null
    },
    {
      "status": "0x1",
      "cumulativeGasUsed": "0x6ca0",
      "logs": [
        {
          "address": "0x044fd1e5aeae91410a7865aab984ba9632679aca",
          "topics": [
            "0x5db9ee0a495bf2e6ff9c91a7834c1ba4fdd244a5e8aa4e537bd38aeae4b073aa"
          ],
          "data": "0x0000000000000000000000008aaee2071a400cc60927e46d53f751e521ef4d35",
          "blockHash": "0x3f0a63f7f1421baa8cb83df12b7287775997e4e270ac8c8db3882275f6117c6b",
          "blockNumber": "0x169f8b3",
          "transactionHash": "0x2148376c2666d27acc3eb7d0035700de3f1312e30cd10ae0f0a3cc9cf4dda538",
          "transactionIndex": "0x0",
          "logIndex": "0x0",
          "removed": false
        }
      ],
      "logsBloom": "0x00000000000000000000000000000000000000000000000080400000000000000000000000000000000000000000000000000000000000000000000000000000000000000000000000000400000000000000000000000000000000008000000000000000000000000000000000000000000000000000000000000000000000000000000000000000000000000000000000000000000000000000000000000000000000000000000000000000000000000000000000000000000000000000000000000000000000000000000000000000000000000000000000000000000000000000000000000000200000000000000000000000000000000000000000000400",
      "type": "0x2",
      "transactionHash": "0x2148376c2666d27acc3eb7d0035700de3f1312e30cd10ae0f0a3cc9cf4dda538",
      "transactionIndex": "0x0",
      "blockHash": "0x3f0a63f7f1421baa8cb83df12b7287775997e4e270ac8c8db3882275f6117c6b",
      "blockNumber": "0x169f8b3",
      "gasUsed": "0x6ca0",
      "effectiveGasPrice": "0x2",
      "blobGasUsed": "0x0",
      "from": "0x8aaee2071a400cc60927e46d53f751e521ef4d35",
      "to": "0x044fd1e5aeae91410a7865aab984ba9632679aca",
      "contractAddress": null
    }
  ],
  "libraries": [],
  "pending": [],
  "returns": {},
  "timestamp": 1762685438,
  "chain": 8,
  "commit": "ddd405c"
}